{
  "contractName": "DeployedTender",
  "abi": [
    {
      "constant": false,
      "inputs": [
        {
          "name": "addr",
          "type": "address"
        },
        {
          "name": "docHash",
          "type": "string"
        },
        {
          "name": "docAddr",
          "type": "string"
        }
      ],
      "name": "addOracleData",
      "outputs": [
        {
          "name": "",
          "type": "bool"
        }
      ],
      "payable": true,
      "stateMutability": "payable",
      "type": "function"
    },
    {
      "constant": false,
      "inputs": [
        {
          "name": "addr",
          "type": "address"
        }
      ],
      "name": "getOracleData",
      "outputs": [
        {
          "components": [
            {
              "name": "docAddress",
              "type": "string"
            },
            {
              "name": "docHash",
              "type": "string"
            }
          ],
          "name": "",
          "type": "tuple"
        }
      ],
      "payable": true,
      "stateMutability": "payable",
      "type": "function"
    },
    {
      "constant": false,
      "inputs": [],
      "name": "getCreator",
      "outputs": [
        {
          "name": "",
          "type": "address"
        }
      ],
      "payable": true,
      "stateMutability": "payable",
      "type": "function"
    },
    {
      "constant": false,
      "inputs": [
        {
          "name": "addr",
          "type": "address"
        }
      ],
      "name": "checkIfOracleExists",
      "outputs": [
        {
          "name": "",
          "type": "bool"
        }
      ],
      "payable": false,
      "stateMutability": "nonpayable",
      "type": "function"
    },
    {
      "constant": false,
      "inputs": [],
      "name": "getOracleList",
      "outputs": [
        {
          "name": "",
          "type": "address[10]"
        }
      ],
      "payable": false,
      "stateMutability": "nonpayable",
      "type": "function"
    },
    {
      "constant": false,
      "inputs": [
        {
          "name": "addr",
          "type": "address"
        }
      ],
      "name": "addOracle",
      "outputs": [
        {
          "name": "",
          "type": "uint256"
        }
      ],
      "payable": false,
      "stateMutability": "nonpayable",
      "type": "function"
    },
    {
      "inputs": [],
      "payable": true,
      "stateMutability": "payable",
      "type": "constructor"
    }
  ],
  "bytecode": "0x6060604052336000806101000a81548173ffffffffffffffffffffffffffffffffffffffff021916908373ffffffffffffffffffffffffffffffffffffffff160217905550610a02806100536000396000f300606060405260043610610077576000357c0100000000000000000000000000000000000000000000000000000000900463ffffffff168062a4e66b1461007c5780630cf42dbb146101445780630ee2cb10146101865780633399e3fc146101a4578063510c27ad146101f1578063df5dd1a51461021a575b600080fd5b61012e600480803573ffffffffffffffffffffffffffffffffffffffff1690602001909190803590602001908201803590602001908080601f0160208091040260200160405190810160405280939291908181526020018383808284378201915050505050509190803590602001908201803590602001908080601f01602080910402602001604051908101604052809392919081815260200183838082843782019150505050505091905050610267565b60405161013b91906108c0565b60405180910390f35b610170600480803573ffffffffffffffffffffffffffffffffffffffff16906020019091905050610310565b60405161017d91906108db565b60405180910390f35b61018e6104c1565b60405161019b9190610889565b60405180910390f35b34156101af57600080fd5b6101db600480803573ffffffffffffffffffffffffffffffffffffffff169060200190919050506104ea565b6040516101e891906108c0565b60405180910390f35b34156101fc57600080fd5b610204610580565b60405161021191906108a4565b60405180910390f35b341561022557600080fd5b610251600480803573ffffffffffffffffffffffffffffffffffffffff16906020019091905050610601565b60405161025e91906108fd565b60405180910390f35b6000610272846104ea565b1561030957604080519081016040528083815260200184815250600b60008673ffffffffffffffffffffffffffffffffffffffff1673ffffffffffffffffffffffffffffffffffffffff16815260200190815260200160002060008201518160000190805190602001906102e7929190610679565b506020820151816001019080519060200190610304929190610679565b509050505b9392505050565b6103186106f9565b610321826104ea565b156104bb57600b60008373ffffffffffffffffffffffffffffffffffffffff1673ffffffffffffffffffffffffffffffffffffffff168152602001908152602001600020604080519081016040529081600082018054600181600116156101000203166002900480601f0160208091040260200160405190810160405280929190818152602001828054600181600116156101000203166002900480156104095780601f106103de57610100808354040283529160200191610409565b820191906000526020600020905b8154815290600101906020018083116103ec57829003601f168201915b50505050508152602001600182018054600181600116156101000203166002900480601f0160208091040260200160405190810160405280929190818152602001828054600181600116156101000203166002900480156104ab5780601f10610480576101008083540402835291602001916104ab565b820191906000526020600020905b81548152906001019060200180831161048e57829003601f168201915b50505050508152505090506104bc565b5b919050565b60008060009054906101000a900473ffffffffffffffffffffffffffffffffffffffff16905090565b600080600090505b6009811015610575578273ffffffffffffffffffffffffffffffffffffffff16600182600a8110151561052157fe5b0160009054906101000a900473ffffffffffffffffffffffffffffffffffffffff1673ffffffffffffffffffffffffffffffffffffffff161415610568576001915061057a565b80806001019150506104f2565b600091505b50919050565b61058861071f565b6001600a806020026040519081016040528092919082600a80156105f7576020028201915b8160009054906101000a900473ffffffffffffffffffffffffffffffffffffffff1673ffffffffffffffffffffffffffffffffffffffff16815260200190600101908083116105ad575b5050505050905090565b60003373ffffffffffffffffffffffffffffffffffffffff166000809054906101000a900473ffffffffffffffffffffffffffffffffffffffff1673ffffffffffffffffffffffffffffffffffffffff161480156106655750610663826104ea565b155b1561067357600a9050610674565b5b919050565b828054600181600116156101000203166002900490600052602060002090601f016020900481019282601f106106ba57805160ff19168380011785556106e8565b828001600101855582156106e8579182015b828111156106e75782518255916020019190600101906106cc565b5b5090506106f5919061075e565b5090565b604080519081016040528061070c610783565b8152602001610719610783565b81525090565b61014060405190810160405280600a905b600073ffffffffffffffffffffffffffffffffffffffff168152602001906001900390816107305790505090565b61078091905b8082111561077c576000816000905550600101610764565b5090565b90565b602060405190810160405280600081525090565b6107a081610945565b82525050565b6107af81610922565b6107b882610918565b60005b828110156107ea576107ce858351610797565b6107d782610938565b91506020850194506001810190506107bb565b5050505050565b6107fa81610965565b82525050565b600061080b8261092d565b80845261081f81602086016020860161097b565b610828816109b7565b602085010191505092915050565b600060408301600083015184820360008601526108538282610800565b9150506020830151848203602086015261086d8282610800565b9150508091505092915050565b61088381610971565b82525050565b600060208201905061089e6000830184610797565b92915050565b6000610140820190506108ba60008301846107a6565b92915050565b60006020820190506108d560008301846107f1565b92915050565b600060208201905081810360008301526108f58184610836565b905092915050565b6000602082019050610912600083018461087a565b92915050565b6000819050919050565b6000600a9050919050565b600081519050919050565b6000602082019050919050565b600073ffffffffffffffffffffffffffffffffffffffff82169050919050565b60008115159050919050565b6000819050919050565b60005b8381101561099957808201518184015260208101905061097e565b838114600081146109a9576109b0565b6000858501525b5050505050565b6000601f19601f83011690509190505600a265627a7a72305820206f34ce9ff6ca1099deccfcc4bfc61fb66a8e9fc98b36ab6389ab57ca6682e06c6578706572696d656e74616cf50037",
  "source": "pragma experimental ABIEncoderV2;\n\n\n\ncontract DeployedTender {\n\n    address creator;\n    address[10] oracles;\n    \n    \n    struct oracleEvaluation{\n        string docAddress;\n        string docHash;\n        \n    }\n    \n    mapping(address => oracleEvaluation) oracleData;\n    \n    function DeployedTender() public payable{\n        creator = msg.sender;\n        \n    }\n    \n    \n    //check if oracle exists\n    function checkIfOracleExists(address addr) returns (bool){\n        for(uint i =0; i <9 ; i ++){\n            if(oracles[i] == addr){\n                return true;\n            }\n        }\n        return false;\n    }\n    \n    \n    //add a oracle\n    function addOracle(address addr) public returns (uint) {\n        if(creator == msg.sender && !checkIfOracleExists(addr)){\n            return oracles.length;\n            oracles[oracles.length]=addr;\n           // return true;\n        }\n        else{\n           // return false;\n        }\n    }\n    \n\n    \n    //add orcale oracle data\n    function addOracleData(address addr , string docHash, string docAddr) public payable returns (bool){\n        if(checkIfOracleExists(addr)){\n            oracleData[addr] = oracleEvaluation(docAddr,docHash);\n        }\n    }\n    \n    \n    //get a user using public key\n    function getOracleList() public returns (address[10]) {\n        return oracles;\n    }\n    \n    function getOracleData(address addr) public payable returns (oracleEvaluation){\n        if(checkIfOracleExists(addr)){\n            return oracleData[addr];\n        }\n            \n        \n    }\n    \n    function getCreator() public payable returns (address) {\n        return creator;\n    }\n    \n}",
  "sourcePath": "/home/knolly/tests/blockchain/tenderSystem/blockchain/contracts/DeployTender.sol",
  "compiler": {
    "name": "solc",
    "version": "0.4.18+commit.9cf6e910.Emscripten.clang"
  },
  "schemaVersion": "1.0.1",
  "updatedAt": "2018-03-19T15:20:57.399Z"
}