{
  "contractName": "participation",
  "abi": [
    {
      "constant": false,
      "inputs": [
        {
          "name": "_userPubKey",
          "type": "address"
        },
        {
          "name": "_name",
          "type": "string"
        },
        {
          "name": "_isMiner",
          "type": "bool"
        },
        {
          "name": "_isVendor",
          "type": "bool"
        }
      ],
      "name": "addUser",
      "outputs": [
        {
          "name": "",
          "type": "bool"
        }
      ],
      "payable": false,
      "stateMutability": "nonpayable",
      "type": "function"
    },
    {
      "constant": true,
      "inputs": [
        {
          "name": "",
          "type": "uint256"
        }
      ],
      "name": "userAddresses",
      "outputs": [
        {
          "name": "",
          "type": "address"
        }
      ],
      "payable": false,
      "stateMutability": "view",
      "type": "function"
    },
    {
      "constant": false,
      "inputs": [
        {
          "name": "_userPubKey",
          "type": "address"
        }
      ],
      "name": "getUser",
      "outputs": [
        {
          "name": "",
          "type": "address"
        },
        {
          "name": "",
          "type": "string"
        },
        {
          "name": "",
          "type": "uint256[]"
        },
        {
          "name": "",
          "type": "bool"
        },
        {
          "name": "",
          "type": "bool"
        }
      ],
      "payable": false,
      "stateMutability": "nonpayable",
      "type": "function"
    },
    {
      "constant": false,
      "inputs": [
        {
          "name": "_userPubKey",
          "type": "address"
        },
        {
          "name": "tenderId",
          "type": "uint256"
        }
      ],
      "name": "applyTender",
      "outputs": [
        {
          "name": "",
          "type": "bool"
        }
      ],
      "payable": false,
      "stateMutability": "nonpayable",
      "type": "function"
    },
    {
      "constant": false,
      "inputs": [
        {
          "name": "_userPubKey",
          "type": "address"
        }
      ],
      "name": "getUserTenderList",
      "outputs": [
        {
          "name": "",
          "type": "uint256[]"
        }
      ],
      "payable": false,
      "stateMutability": "nonpayable",
      "type": "function"
    },
    {
      "inputs": [],
      "payable": false,
      "stateMutability": "nonpayable",
      "type": "constructor"
    }
  ],
  "bytecode": "0x6060604052341561000f57600080fd5b336000806101000a81548173ffffffffffffffffffffffffffffffffffffffff021916908373ffffffffffffffffffffffffffffffffffffffff160217905550610bc28061005e6000396000f30060606040526004361061006d576000357c0100000000000000000000000000000000000000000000000000000000900463ffffffff168063107fcac914610072578063502c9bd51461011c5780636f77926b1461017f578063ad96b536146102c2578063ece6afec1461031c575b600080fd5b341561007d57600080fd5b610102600480803573ffffffffffffffffffffffffffffffffffffffff1690602001909190803590602001908201803590602001908080601f01602080910402602001604051908101604052809392919081815260200183838082843782019150505050505091908035151590602001909190803515159060200190919050506103aa565b604051808215151515815260200191505060405180910390f35b341561012757600080fd5b61013d60048080359060200190919050506106f7565b604051808273ffffffffffffffffffffffffffffffffffffffff1673ffffffffffffffffffffffffffffffffffffffff16815260200191505060405180910390f35b341561018a57600080fd5b6101b6600480803573ffffffffffffffffffffffffffffffffffffffff16906020019091905050610736565b604051808673ffffffffffffffffffffffffffffffffffffffff1673ffffffffffffffffffffffffffffffffffffffff16815260200180602001806020018515151515815260200184151515158152602001838103835287818151815260200191508051906020019080838360005b83811015610240578082015181840152602081019050610225565b50505050905090810190601f16801561026d5780820380516001836020036101000a031916815260200191505b50838103825286818151815260200191508051906020019060200280838360005b838110156102a957808201518184015260208101905061028e565b5050505090500197505050505050505060405180910390f35b34156102cd57600080fd5b610302600480803573ffffffffffffffffffffffffffffffffffffffff16906020019091908035906020019091905050610959565b604051808215151515815260200191505060405180910390f35b341561032757600080fd5b610353600480803573ffffffffffffffffffffffffffffffffffffffff169060200190919050506109d3565b6040518080602001828103825283818151815260200191508051906020019060200280838360005b8381101561039657808201518184015260208101905061037b565b505050509050019250505060405180910390f35b60006103b4610a73565b3373ffffffffffffffffffffffffffffffffffffffff166000809054906101000a900473ffffffffffffffffffffffffffffffffffffffff1673ffffffffffffffffffffffffffffffffffffffff1614156106e957821515841515141561041e57600091506106ee565b600160008773ffffffffffffffffffffffffffffffffffffffff1673ffffffffffffffffffffffffffffffffffffffff16815260200190815260200160002060a060405190810160405290816000820160009054906101000a900473ffffffffffffffffffffffffffffffffffffffff1673ffffffffffffffffffffffffffffffffffffffff1673ffffffffffffffffffffffffffffffffffffffff168152602001600182018054600181600116156101000203166002900480601f0160208091040260200160405190810160405280929190818152602001828054600181600116156101000203166002900480156105585780601f1061052d57610100808354040283529160200191610558565b820191906000526020600020905b81548152906001019060200180831161053b57829003601f168201915b50505050508152602001600282018054806020026020016040519081016040528092919081815260200182805480156105b057602002820191906000526020600020905b81548152602001906001019080831161059c575b505050505081526020016003820160009054906101000a900460ff161515151581526020016003820160019054906101000a900460ff161515151581525050905085816000019073ffffffffffffffffffffffffffffffffffffffff16908173ffffffffffffffffffffffffffffffffffffffff168152505084816020018190525060006040518059106106415750595b9080825280602002602001820160405250816040018190525083816060019015159081151581525050828160800190151590811515815250506001600280548060010182816106909190610ac9565b9160005260206000209001600089909190916101000a81548173ffffffffffffffffffffffffffffffffffffffff021916908373ffffffffffffffffffffffffffffffffffffffff1602179055505050600191506106ee565b600091505b50949350505050565b60028181548110151561070657fe5b90600052602060002090016000915054906101000a900473ffffffffffffffffffffffffffffffffffffffff1681565b6000610740610af5565b610748610b09565b600080610753610a73565b600160008873ffffffffffffffffffffffffffffffffffffffff1673ffffffffffffffffffffffffffffffffffffffff16815260200190815260200160002060a060405190810160405290816000820160009054906101000a900473ffffffffffffffffffffffffffffffffffffffff1673ffffffffffffffffffffffffffffffffffffffff1673ffffffffffffffffffffffffffffffffffffffff168152602001600182018054600181600116156101000203166002900480601f01602080910402602001604051908101604052809291908181526020018280546001816001161561010002031660029004801561088d5780601f106108625761010080835404028352916020019161088d565b820191906000526020600020905b81548152906001019060200180831161087057829003601f168201915b50505050508152602001600282018054806020026020016040519081016040528092919081815260200182805480156108e557602002820191906000526020600020905b8154815260200190600101908083116108d1575b505050505081526020016003820160009054906101000a900460ff161515151581526020016003820160019054906101000a900460ff161515151581525050905080600001518160200151826040015183606001518460800151839350829250955095509550955095505091939590929450565b600080600160008573ffffffffffffffffffffffffffffffffffffffff1673ffffffffffffffffffffffffffffffffffffffff16815260200190815260200160002090508060020180548060010182816109b39190610b1d565b916000526020600020900160008590919091505550600191505092915050565b6109db610b09565b600160008373ffffffffffffffffffffffffffffffffffffffff1673ffffffffffffffffffffffffffffffffffffffff168152602001908152602001600020600201805480602002602001604051908101604052809291908181526020018280548015610a6757602002820191906000526020600020905b815481526020019060010190808311610a53575b50505050509050919050565b60a060405190810160405280600073ffffffffffffffffffffffffffffffffffffffff168152602001610aa4610b49565b8152602001610ab1610b5d565b81526020016000151581526020016000151581525090565b815481835581811511610af057818360005260206000209182019101610aef9190610b71565b5b505050565b602060405190810160405280600081525090565b602060405190810160405280600081525090565b815481835581811511610b4457818360005260206000209182019101610b439190610b71565b5b505050565b602060405190810160405280600081525090565b602060405190810160405280600081525090565b610b9391905b80821115610b8f576000816000905550600101610b77565b5090565b905600a165627a7a72305820c97b7bfea2bd4bb96843c4d582fbde07221e8e43db9b0f35b5efed9ca1f901ca0029",
  "source": "pragma solidity ^0.4.8;\n\ncontract participation {\n\n    address creator;\n    \n    \n    struct User{\n        address userPubKey;\n        string name;\n        uint[] tendersApplied;\n        bool isMiner;\n        bool isVendor;\n        \n    }\n    \n    // User [] users;\n    mapping(address => User) users;\n    \n    address[] public userAddresses;\n    \n    \n    \n    //add a user\n    function addUser(address _userPubKey, string _name, bool _isMiner, bool _isVendor) public returns (bool) {\n        if(creator == msg.sender){\n            \n            if(_isMiner == _isVendor){\n                return false;\n            }\n            User memory usr = users[_userPubKey];\n        \n            usr.userPubKey = _userPubKey;\n            usr.name = _name;\n            usr.tendersApplied = new uint[] (0);\n            usr.isMiner = _isMiner;\n            usr.isVendor = _isVendor;\n            \n            userAddresses.push(_userPubKey) -1;\n            return true;\n        }\n        else{\n            return false;\n        }\n    }\n    \n    //get a user using public key\n    function getUser(address _userPubKey) public returns (address,string,uint[],bool,bool) {\n        User memory user = users[_userPubKey];\n        return (user.userPubKey,user.name,user.tendersApplied,user.isMiner,user.isVendor);\n    }\n    \n    \n    function participation() public{\n        creator = msg.sender;\n        \n    }\n    \n    function applyTender(address _userPubKey, uint tenderId) returns(bool){\n        User storage user = users[_userPubKey];\n        user.tendersApplied.push(tenderId);\n        return true;\n    }\n    \n    function getUserTenderList(address _userPubKey) returns(uint[]){\n        return users[_userPubKey].tendersApplied;\n    }\n   \n//   function setCreator(address _creatorAddress) returns (bool){\n//       creator = _creatorAddress;\n//       return true;\n//   }\n}",
  "sourcePath": "/home/knolly/tests/blockchain/tenderSystem/blockchain/contracts/participation.sol",
  "compiler": {
    "name": "solc",
    "version": "0.4.18+commit.9cf6e910.Emscripten.clang"
  },
  "schemaVersion": "1.0.1",
  "updatedAt": "2018-03-19T16:07:03.566Z"
}