{
  "contractName": "Tender",
  "abi": [
    {
      "constant": false,
      "inputs": [
        {
          "name": "_userPubKey",
          "type": "address"
        }
      ],
      "name": "allotTender",
      "outputs": [
        {
          "name": "",
          "type": "bool"
        }
      ],
      "payable": false,
      "stateMutability": "nonpayable",
      "type": "function"
    },
    {
      "constant": false,
      "inputs": [
        {
          "name": "_applicant",
          "type": "address"
        }
      ],
      "name": "fetchApplicant",
      "outputs": [
        {
          "components": [
            {
              "name": "documentHash",
              "type": "uint256"
            },
            {
              "name": "documentAddress",
              "type": "string"
            },
            {
              "name": "points",
              "type": "uint256[]"
            },
            {
              "name": "userPubKey",
              "type": "address"
            }
          ],
          "name": "",
          "type": "tuple"
        }
      ],
      "payable": false,
      "stateMutability": "nonpayable",
      "type": "function"
    },
    {
      "constant": false,
      "inputs": [
        {
          "name": "_tenderName",
          "type": "string"
        },
        {
          "name": "_tenderDesc",
          "type": "string"
        }
      ],
      "name": "setupTender",
      "outputs": [
        {
          "name": "",
          "type": "bool"
        }
      ],
      "payable": false,
      "stateMutability": "nonpayable",
      "type": "function"
    },
    {
      "constant": false,
      "inputs": [
        {
          "name": "_documentHash",
          "type": "uint256"
        },
        {
          "name": "_documentAddress",
          "type": "string"
        },
        {
          "name": "_points",
          "type": "uint256[]"
        },
        {
          "name": "_userPubKey",
          "type": "address"
        }
      ],
      "name": "addApplicant",
      "outputs": [
        {
          "name": "",
          "type": "bool"
        }
      ],
      "payable": false,
      "stateMutability": "nonpayable",
      "type": "function"
    }
  ],
  "bytecode": "0x6060604052341561000f57600080fd5b610cb38061001e6000396000f300606060405260043610610062576000357c0100000000000000000000000000000000000000000000000000000000900463ffffffff16806393636d2a146100675780639890877f146100b4578063b357b93d14610101578063d74ddb4e146101b5575b600080fd5b341561007257600080fd5b61009e600480803573ffffffffffffffffffffffffffffffffffffffff1690602001909190505061028e565b6040516100ab9190610b89565b60405180910390f35b34156100bf57600080fd5b6100eb600480803573ffffffffffffffffffffffffffffffffffffffff1690602001909190505061033a565b6040516100f89190610ba4565b60405180910390f35b341561010c57600080fd5b61019f600480803590602001908201803590602001908080601f0160208091040260200160405190810160405280939291908181526020018383808284378201915050505050509190803590602001908201803590602001908080601f0160208091040260200160405190810160405280939291908181526020018383808284378201915050505050509190505061052f565b6040516101ac9190610b89565b60405180910390f35b34156101c057600080fd5b610278600480803590602001909190803590602001908201803590602001908080601f016020809104026020016040519081016040528093929190818152602001838380828437820191505050505050919080359060200190820180359060200190808060200260200160405190810160405280939291908181526020018383602002808284378201915050505050509190803573ffffffffffffffffffffffffffffffffffffffff1690602001909190505061060a565b6040516102859190610b89565b60405180910390f35b60003373ffffffffffffffffffffffffffffffffffffffff16600260009054906101000a900473ffffffffffffffffffffffffffffffffffffffff1673ffffffffffffffffffffffffffffffffffffffff1614156103305781600460006101000a81548173ffffffffffffffffffffffffffffffffffffffff021916908373ffffffffffffffffffffffffffffffffffffffff16021790555060019050610335565b600090505b919050565b610342610773565b60003373ffffffffffffffffffffffffffffffffffffffff16600260009054906101000a900473ffffffffffffffffffffffffffffffffffffffff1673ffffffffffffffffffffffffffffffffffffffff16141561052857600360008154811015156103aa57fe5b90600052602060002090600402019050806080604051908101604052908160008201548152602001600182018054600181600116156101000203166002900480601f01602080910402602001604051908101604052809291908181526020018280546001816001161561010002031660029004801561046a5780601f1061043f5761010080835404028352916020019161046a565b820191906000526020600020905b81548152906001019060200180831161044d57829003601f168201915b50505050508152602001600282018054806020026020016040519081016040528092919081815260200182805480156104c257602002820191906000526020600020905b8154815260200190600101908083116104ae575b505050505081526020016003820160009054906101000a900473ffffffffffffffffffffffffffffffffffffffff1673ffffffffffffffffffffffffffffffffffffffff1673ffffffffffffffffffffffffffffffffffffffff16815250509150610529565b5b50919050565b60008073ffffffffffffffffffffffffffffffffffffffff16600260009054906101000a900473ffffffffffffffffffffffffffffffffffffffff1673ffffffffffffffffffffffffffffffffffffffff1614156105ff5733600260006101000a81548173ffffffffffffffffffffffffffffffffffffffff021916908373ffffffffffffffffffffffffffffffffffffffff16021790555082600090805190602001906105de9291906107be565b5081600190805190602001906105f59291906107be565b5060019050610604565b600090505b92915050565b6000610614610773565b3373ffffffffffffffffffffffffffffffffffffffff16600260009054906101000a900473ffffffffffffffffffffffffffffffffffffffff1673ffffffffffffffffffffffffffffffffffffffff161415610765576080604051908101604052808781526020018681526020018581526020018473ffffffffffffffffffffffffffffffffffffffff168152509050600380548060010182816106b8919061083e565b916000526020600020906004020160008390919091506000820151816000015560208201518160010190805190602001906106f4929190610870565b5060408201518160020190805190602001906107119291906108f0565b5060608201518160030160006101000a81548173ffffffffffffffffffffffffffffffffffffffff021916908373ffffffffffffffffffffffffffffffffffffffff1602179055505050506001915061076a565b600091505b50949350505050565b6080604051908101604052806000815260200161078e61093d565b815260200161079b610951565b8152602001600073ffffffffffffffffffffffffffffffffffffffff1681525090565b828054600181600116156101000203166002900490600052602060002090601f016020900481019282601f106107ff57805160ff191683800117855561082d565b8280016001018555821561082d579182015b8281111561082c578251825591602001919060010190610811565b5b50905061083a9190610965565b5090565b81548183558181151161086b5760040281600402836000526020600020918201910161086a919061098a565b5b505050565b828054600181600116156101000203166002900490600052602060002090601f016020900481019282601f106108b157805160ff19168380011785556108df565b828001600101855582156108df579182015b828111156108de5782518255916020019190600101906108c3565b5b5090506108ec9190610965565b5090565b82805482825590600052602060002090810192821561092c579160200282015b8281111561092b578251825591602001919060010190610910565b5b5090506109399190610965565b5090565b602060405190810160405280600081525090565b602060405190810160405280600081525090565b61098791905b8082111561098357600081600090555060010161096b565b5090565b90565b6109f591905b808211156109f1576000808201600090556001820160006109b191906109f8565b6002820160006109c19190610a40565b6003820160006101000a81549073ffffffffffffffffffffffffffffffffffffffff021916905550600401610990565b5090565b90565b50805460018160011615610100020316600290046000825580601f10610a1e5750610a3d565b601f016020900490600052602060002090810190610a3c9190610965565b5b50565b5080546000825590600052602060002090810190610a5e9190610965565b50565b610a6a81610bf6565b82525050565b6000610a7b82610bd3565b808452602084019350610a8d83610bc6565b60005b82811015610abf57610aa3868351610b7a565b610aac82610be9565b9150602086019550600181019050610a90565b50849250505092915050565b610ad481610c16565b82525050565b6000610ae582610bde565b808452610af9816020860160208601610c2c565b610b0281610c68565b602085010191505092915050565b6000608083016000830151610b286000860182610b7a565b5060208301518482036020860152610b408282610ada565b91505060408301518482036040860152610b5a8282610a70565b9150506060830151610b6f6060860182610a61565b508091505092915050565b610b8381610c22565b82525050565b6000602082019050610b9e6000830184610acb565b92915050565b60006020820190508181036000830152610bbe8184610b10565b905092915050565b6000602082019050919050565b600081519050919050565b600081519050919050565b6000602082019050919050565b600073ffffffffffffffffffffffffffffffffffffffff82169050919050565b60008115159050919050565b6000819050919050565b60005b83811015610c4a578082015181840152602081019050610c2f565b83811460008114610c5a57610c61565b6000858501525b5050505050565b6000601f19601f83011690509190505600a265627a7a723058209d9984260a92bed9cfa5d6b73517b7cb3622becc5372a1331cc4bcb90f055e616c6578706572696d656e74616cf50037",
  "source": "pragma experimental ABIEncoderV2;\ncontract Tender {\n\n\n    string tenderName;\n    string tenderDesc;\n    address creator;\n    struct Applicant{\n        uint documentHash;\n        string documentAddress;\n        uint[] points;\n        address userPubKey;\n    }\n    \n    \n    Applicant [] applicants; \n    \n    address allotedApplicant;\n    \n    /// Create a new applicant\n    function addApplicant(uint _documentHash, string _documentAddress, uint[] _points,  address _userPubKey) public returns (bool) {\n        if(creator == msg.sender){\n            Applicant memory temp = Applicant(_documentHash, _documentAddress, _points, _userPubKey);\n            applicants.push(temp);\n            return true;\n        }\n        else{\n            return false;\n        }\n        \n    }\n    \n    /// retrieve a applicant\n    function fetchApplicant(address _applicant) public returns (Applicant){\n        if(creator == msg.sender){\n            Applicant storage temp = applicants[0];\n            return temp;\n        }\n        else{\n            \n        }\n        \n    }\n    \n    function setupTender(string _tenderName,string _tenderDesc) public returns (bool) {\n        if(creator == address(0)){\n            creator = msg.sender;\n            tenderName = _tenderName;\n            tenderDesc = _tenderDesc;\n            return true;\n        }\n        else{\n            return false;\n        }\n    }\n    \n    function allotTender(address _userPubKey) public returns (bool){\n        if(creator == msg.sender){\n             allotedApplicant = _userPubKey;\n            return true;\n        }\n        else{\n            return false;\n        }\n       \n    }\n}",
  "sourcePath": "/home/knolly/tests/blockchain/tenderSystem/blockchain/contracts/Tender.sol",
  "compiler": {
    "name": "solc",
    "version": "0.4.18+commit.9cf6e910.Emscripten.clang"
  },
  "schemaVersion": "1.0.1",
  "updatedAt": "2018-03-19T15:21:05.891Z"
}